:020000040800F2
:101C0000B8180020811D0008858A0008656A000850
:101C100000000000000000000000000000000000C4
:101C20000000000000000000000000009DA200086D
:101C30000000000000000000518B00087BBF00087E
:101C4000931D0008931D000865900008931D00086F
:101C5000931D00083D630008716300088563000858
:101C6000931D0008931D0008931D0008931D000894
:101C7000931D0008931D0008931D0008931D000884
:101C8000931D0008931D000800000000931D00082C
:101C9000931D0008931D000825C40008931D00082B
:101CA000931D0008931D0008931D00086DC50008D2
:101CB000A1C5000800000000931D000800000000FE
:101CC00000F002F800F030F80CA030C808382418F2
:101CD0002D18A246671EAB4654465D46AC4201D164
:101CE00000F022F87E460F3E0FCCB6460126334266
:101CF00000D0FB1AA246AB4633431847C8B90000D0
:101D0000E8B900000023002400250026103A01D382
:101D100078C1FBD8520700D330C100D50B607047A3
:101D20001FB51FBD10B510BD00F0BFFE1146FFF777
:101D3000F7FF0AF08FFF00F0D7FE03B4FFF7F2FFC2
:101D400003BC00F0DDFE000070B505460C461646EB
:101D500002E00FCC0FC5103E102EFAD2082E02D38F
:101D600003CC03C5083E042E07D301CC01C5361FA2
:101D700003E021782970641C6D1C761EF9D270BDB9
:101D80000748804707480047FEE7FEE7FEE7FEE713
:101D9000FEE7FEE704480549054A064B7047000088
:101DA00001C00008C11C0008B80E0020B8180020AF
:101DB000B8100020B8100020F8B5042A2CD38307EF
:101DC00012D00B78491C0370401C521E83070BD0A5
:101DD0000B78491C0370401C521E830704D00B78FB
:101DE000491C0370401C521E8B079B0F05D0C91A5B
:101DF000DF002023DE1B08C90AE0FFF7A5FFF8BDBE
:101E00001D4608C9FD401C46B4402C4310C0121F9B
:101E1000042AF5D2F308C91A521EF0D40B78491CD3
:101E20000370401C521EEAD40B78491C0370401CFE
:101E3000012AE4D409780170F8BD01E004C0091F4B
:101E40000429FBD28B0701D50280801CC90700D072
:101E50000270704700290BD0C30702D00270401CEB
:101E6000491E022904D3830702D50280801C891EE3
:101E7000E3E70022EEE70022DFE7002203098B42BE
:101E80002CD3030A8B4211D300239C464EE0034619
:101E90000B433CD4002243088B4231D303098B42CD
:101EA0001CD3030A8B4201D394463FE0C3098B4203
:101EB00001D3CB01C01A524183098B4201D38B015C
:101EC000C01A524143098B4201D34B01C01A5241FF
:101ED00003098B4201D30B01C01A5241C3088B4244
:101EE00001D3CB00C01A524183088B4201D38B002F
:101EF000C01A524143088B4201D34B00C01A5241D1
:101F0000411A00D201465241104670475DE0CA0FA7
:101F100000D04942031000D34042534000229C4667
:101F200003098B422DD3030A8B4212D3FC22890171
:101F300012BA030A8B420CD3890192118B4208D347
:101F4000890192118B4204D389013AD0921100E0A9
:101F50008909C3098B4201D3CB01C01A52418309BD
:101F60008B4201D38B01C01A524143098B4201D3EA
:101F70004B01C01A524103098B4201D30B01C01A15
:101F80005241C3088B4201D3CB00C01A524183088F
:101F90008B4201D38B00C01A5241D9D243088B42E5
:101FA00001D34B00C01A5241411A00D20146634688
:101FB00052415B10104601D34042002B00D54942EC
:101FC000704763465B1000D3404201B50020C04615
:101FD000C04602BD70477047704700000246C80FF8
:101FE000C00781434B0030B54B405B009B0D20D0B8
:101FF0001923DB06C91801231B05994220DB0324A2
:10200000A40704251346AB400BD3002B04D1EB06E9
:1020100013409B00E34204D40124640700231219F7
:102020005941FF231B0599420BD2C9000143500FB0
:1020300009E0CB0204D501430803024305D005485B
:1020400030BDFF21C905084330BD084607210905F9
:10205000884330BD0000C07FF0B50C46871A9C4114
:102060000D46861A9D4103D2C01BA141D21963417E
:102070000D0D1F0DC94EEC1BAE435CD07F057F0DCF
:102080000026002F51D02D05AC46A943DD020123C7
:10209000ED0A1B051D4320231B1B24D41746E740D4
:1020A000381871412F46E740CC199D402818314619
:1020B00061410C0D27D161449A4013D50023401C87
:1020C000594152000ED14008400001224B005205F8
:1020D000D34207D305204007C14201D5B04900E0F3
:1020E000B0493046F0BD6B00002A00D001229A189A
:1020F0001F23203C1B1B01D5002302E0E5402818CC
:1021000071410C0DD7D0012424050919C407CD074E
:1021100040084908E40F28436144002CD5D000242E
:10212000401C61419A40D0D1CDE76A05520DD9D10A
:10213000C90FC907D5E79C4D4E00002801D00124E6
:1021400000E0002434195F00002A01D0012600E0DD
:102150000026BE19954FAC420CD8AE420AD8B44204
:1021600006D001256D05EC42BCD010461946F0BDE5
:102170009942FCD000203946F0BDF0B51FB40C46A2
:102180000F46811A9F412546861A9D4106D2012598
:10219000ED076F40401ABC4152187B41210D1E0DC6
:1021A0008D1BAC467D4D8D437ED075056D0D7CD06D
:1021B0000D05AE46AC431B031B0B794D52429D41AE
:1021C000202366469B1B14D31746F7403818002679
:1021D0000090744160462F460741E41900989D40E5
:1021E0002818664116D4714671189A4025D50123E6
:1021F00020E093182A466A415200002B00D0521C5E
:102200001E23203E9B1B002B61DD3541EE17281855
:102210006641E8D5001876415B1C9A4000D3401C0B
:102220004B05F3181524E34010D3002B52D0714610
:102230007118D30FC01802D3491C05B0F0BD01239B
:10224000DB079A42F9D140084000F6E70122520527
:10225000B21801D1002853D00123CC0ADB029943E4
:10226000891E002A08D1020C03D0020C0004103988
:1022700002E00246002020390023550B05D112024E
:102280000823550B01D152010D23550C01D1120128
:102290001B1DD50C01D192009B1C150D01D15200C4
:1022A0005B1C2025EE1A01E02CE022E00546F540FB
:1022B00015439840CA1AE10769181305C918002A7E
:1022C000BBDA032040070818C10FC9070FE07146A9
:1022D0006118B2E7F10740080843711071444A00E1
:1022E0000CD001235B059A42A7D2C90FC907002071
:1022F000A3E74905490D26D1002001E00028F4D1CB
:1023000000219AE7284D6600002801D0012100E055
:10231000002171185F00002A01D0012600E000268C
:10232000BE19224FA94210D8AE420ED8B14208D0F1
:1023300001256D05E94206D01946A8024140104624
:102340007BE79C4201D0214677E70020394674E7BD
:1023500010B50C465C4005D50124E4076340FFF747
:102360000CFF10BDFFF778FE10BD30B40C465C408A
:1023700004D50124E407634030BC6DE630BCFCE6C4
:1023800070B50124E40761400D465D4002D4FFF7BB
:1023900063FE70BD6340FFF7F0FE70BDFF070000F5
:1023A0000000F0FF0000F07F0000E0FF0000F87F79
:1023B000F0B5F94D0C091E092C402E402F468BB06C
:1023C000A7437DD0B543FCD0002E7AD0002CFCD0A2
:1023D0000D465D40ED0F2543AC1BFF25AD04641990
:1023E0000894C502440DC9022143500DDC02044388
:1023F0000120C00701430443D2020191200C110CBB
:1024000000958C46010423468B430A9161460904DA
:10241000E24D8A430991010A7D44491980390978BE
:1024200005464D4301266D18F605751B6943C90C19
:10243000640B891C4C436418B5012C1B250C2E041D
:10244000B4434C434D43210C691889090591009D03
:10245000E90701D00121C90704912C4601996708B9
:10246000CD072F434C08059DE10B4D432D0C29460C
:102470006646754302950D4645432E46029D7D1BDB
:10248000B44100950D465D4301942C0C2F040D467C
:102490005543AE462D0C3D43029503947546049C6E
:1024A0002D04641B049406D2029C039D641C002628
:1024B00075410395029401AC70CC009F7D1B01E037
:1024C0003EE162E1B4410904009507910194059948
:1024D000A4086143090C0C464443650BE7040C4611
:1024E00066467443A646640B3C43039502947446C7
:1024F000049DE4042C1B049406D2029C039D641CDE
:10250000002675410395029401AC70CC009F7D1BA1
:10251000B44101940C465C430095650FE7000C46FE
:102520005443A646640F3C43039502947446049DAD
:10253000E4002C1B049406D2029C039D641C00261C
:1025400075410395029401AC70CC009F7D1BB44192
:10255000AE09AF06049DC900AD092F43049DA40632
:10256000AD060495079D344369180791059DE10B5D
:102570004D432D0C29466646754302950D4645434D
:102580002E46029D7D1BB44100950D465D4301948E
:102590002C0C2F040D465543AE462D0C3D430295A1
:1025A00003947546049C2D04641B049406D2029C7B
:1025B000039D641C002675410395029401AC70CC08
:1025C000009F7D1BB44101948C050694079C890AE9
:1025D000611800950791019C0599A4086143090CB5
:1025E0000D464543680BEF040D46644665436C0B8E
:1025F0003C43049FED047D1BAC4602D20025641CC5
:102600006841009E019D371B85410846584301954E
:102610000C46460FC5005443600F28436546E4004E
:102620002C1B02D20025401C6E41019D3F1AB54172
:102630002846BD09800628438446A009BF064E02ED
:102640000699A40676180743079D002068410A9959
:10265000079019430020099B00906046FF1913431F
:102660004041E20F64003A43A4460446D71A8C4125
:10267000A04203D90120009020463A46C70F941883
:1026800040416246D20F2243644664000494009C99
:10269000BE466400D71AA446044602978C4177468A
:1026A000002F01D1A04204D96046401C8446029A02
:1026B0002046C40FA64694184041049A0546D20FFE
:1026C000224364466400D31A8D417146002901D12A
:1026D000A84202D928461A46641C10430122002849
:1026E00000D0164361020020079B891904465C4113
:1026F0000223002C02DB491813466441089DCE0AD0
:102700002D145D194B056705E10A2C050D19089973
:102710003E43C9076940002B08D0934006D30022EE
:10272000761C5141002B01D1760876001C4A002D01
:1027300043DB154241D0AA433FD030460BB0F0BD39
:1027400006180D464D41174C7642AC411AD39518E8
:102750001C465C41134A6D42A24113D3012252052B
:102760004C00D4420AD15C00D4420BD04B4002D57D
:1027700092021143E2E749004908DFE75940C90FD7
:10278000C90718E000200849D8E7054801420DD1E3
:102790000342F7D0F2E700000000FF07E8B10000B5
:1027A0000000F07F0000E0FF0000F87F1148594072
:1027B0000143C01241400020C0E70123089A9B0654
:1027C0009A4205DC032252078918C90FC907B5E7E9
:1027D000052252078918074A1143D2125140ADE72A
:1027E00070B515461C4602460B4628462146FFF7A3
:1027F000DFFD70BDFFFFFF7F0346CA02400D10B52D
:1028000010430A1504D00124E4072043002A05DB05
:102810000A4CA21A04D4D040FF2A00DD002010BDCB
:102820004A00002B01D0012000E0002010180122F6
:102830005205D042F2D8C817C04310BD1E04000094
:102840001F22030C02D10F22000402D0030E03D07A
:1028500004E00020014670470002083A030F01D14E
:102860000001121F830F01D18000921E002801DB9E
:102870004000521E120551184205C0124118104660
:102880007047C10FC90700D040420122920711438F
:10289000D6E701218907D3E70121C90501234118A2
:1028A00042001B06D3185B0E0AD0C1100722D206C5
:1028B000891840075242D14201D552008918704709
:1028C000090208D50146002A03D0C10FC90700201C
:1028D000704710467047420202D0002002497047FC
:1028E000072109050143F4E70000F87FF0B5FF2553
:1028F0002D04C609C209FF2704462E400137CB0923
:102900003E4348402A402B400746002A6BD0002B0C
:1029100069D0AA4267D0AB4265D0002800DA3246BF
:102920000125ED0529432C4309022002090AD21A88
:102930004B0C7F24E31A434C000A7C44E35C7D2467
:102940002404121914145B00A218884201D3521CEB
:1029500000E0400049420C465C4324115C43DB012B
:102960006415E318040A5C43C502200D0C46444379
:102970006419250A5D432303EC0C0D4665430003EF
:102980000019EB184C42A34201D35B18401CD4053C
:102990002018002B07D05B00C91804D3401C002965
:1029A00001D1400840003F2189048A4209D3002A0E
:1029B00008DC1106090F04D0032149074018C00F95
:1029C000C007F0BD01224100120689187F2252067D
:1029D0009142F6D205214907C84201D59010F0BDB9
:1029E000FF20C005F0BD002F00DA32461648AA428B
:1029F00007D2AB4205D21902090E17D0F80FC00753
:102A0000F0BDFF2563002D06AB42F9D84900A9426D
:102A1000F6D8AB4201D1A942F2D0A94201D100219E
:102A200001E061004908D0050843F0BD1102090E1C
:102A3000FBD0FF200243D005F0BD0A4601461046F8
:102A400054E7000046AD00000000C07F1F22030CC9
:102A500002D10F2200041CD0030E01D10002083A5B
:102A6000030F01D10001121F830F01D18000921EBC
:102A7000002801DB4000521ED205511802125118E5
:102A80001922904004D3491C002801D1490849006B
:102A900008467047C10FC90700D040420122920783
:102AA0001143D3E701218907D0E7754600F024F8E8
:102AB000AE46050069465346C008C000854618B0BA
:102AC00020B5FFF767F960BC00274908B646002625
:102AD000C0C5C0C5C0C5C0C5C0C5C0C5C0C5C0C5CE
:102AE000403D49008D46704710B50446C046C0467B
:102AF0002046FFF722F910BD00487047540E002011
:102B000001491820ABBEFEE726000200704730B531
:102B10008C180278401C13071B0F01D10378401C4E
:102B2000120906D10278401C03E00578401C0D70A4
:102B3000491C5B1EF9D101E00B70491C521EFBD1F0
:102B4000A142E6D3002030BD836A0B438362426119
:102B50007047002904D081680122114381607047C9
:102B600081680222114381607047002904D0C16846
:102B700001221143C1607047C16849084900C16022
:102B80007047C26802239A43C260C2680A43C260A7
:102B90007047000010B50649884208D1441501214C
:102BA000204606F001F80021204605F0FDFF10BD8B
:102BB00000240140002182680123DB071A43826060
:102BC0000F231B038268D20FD207491C994201D000
:102BD000002AF7D18168002901DB006C70470020D2
:102BE000704702460020CB0104D5926801231B06E2
:102BF0009A4300E012680A4200D0012070470000AA
:102C000030B5C268084B1A408C680B680D792343B5
:102C1000CC686D032C4323430C69496923430B4360
:102C20001343C36030BD000003D2FFFF0122120333
:102C3000002903D0C1681143C1607047C168914346
:102C4000C160704781680422114381607047002190
:102C5000016001718160C1600161416170470000E4
:102C600070B51C4D2A8838211B4803F08DFD1B4C84
:102C700081022068091AC91008182060FF30FF304F
:102C800002308001000C26460C3630606A883821FC
:102C9000114803F079FD81026068091AC91008180B
:102CA0006060FF30FF3002308001000C7060AA8845
:102CB0003821094803F068FD8102A068091AC9108B
:102CC0000818A060FF30FF3002308001000CB060B7
:102CD00070BD0000D4000020A2CC000894030020A6
:102CE00010B500240F48007E410701D4C00701D071
:102CF000022415E00B480C492038408888420ED940
:102D0000312009F0E1F9002809D1322009F0DCF97D
:102D1000002804D13D2009F0D7F9002800D0012473
:102D2000204610BD800C0020C40900007047000040
:102D3000F0B5184C2078010703D4810701D4C109EC
:102D40000FD0144AF725121F131D5B7811781E4609
:102D50002B40002906D0012908D0002302290BD0DE
:102D60001370F0BD637001201070F0BD3007FCD50A
:102D7000637002201070F0BD07490E7804273E43AF
:102D80000E702840FD2108404006400E2070137050
:102D9000F0BD0000F00000202802002070B51248AD
:102DA000114A0078FF24C1062D3400250F4B202640
:102DB000121F002909DA5188491C89B25180A142A9
:102DC00003D35580197831431970410701D4C007E6
:102DD00009D05088401C80B25080A04203D3558057
:102DE00018783043187070BDF0000020C601002034
:102DF00010B527480078400649D5264800780128B4
:102E000045D025480078012841D02448244900684D
:102E10000968084323490968084338D122480068F3
:102E2000002834D121480068002830D1204800789B
:102E300000282CD11F480078002828D11E4800788F
:102E4000002824D11D481E490088098808431D49CF
:102E5000098808431BD11C4C2179481C207108208B
:102E600009F052FCC1B2002005F0C8FA207904280C
:102E700001D30020207102F011FF02F0D1FF02F017
:102E80008FFF03F037F803F0B9F802F0E1FF10BD4F
:102E900014020020A0010020A20100200C0100204B
:102EA00010010020140100201C0100201801002046
:102EB000040100200501002006010020240100205B
:102EC0002601002028010020F400002010B5002277
:102ED0000421082004F024F801220421082004F031
:102EE0001FF802220421082004F01AF8002010BD67
:102EF00010B5062009F0D8F903480078800601D5FE
:102F0000FFF7AEFE10BD000014020020F8B500244B
:102F100037484078C00969D0364D05216A1D082020
:102F200003F02AFF2A460021082003F025FF32493A
:102F30000A78FB2002406879C3075B0F1A430A70C6
:102F40000A788007F723C00F1A40C00002430A70B6
:102F500028780027C106294E002911DA10210843DC
:102F60002870052009F0B0F8B079401CC0B2B071EB
:102F7000F02805D3B771224801782022114301704F
:102F8000287881060DD57179491CC9B2717114294F
:102F900004D377712021084328700124062009F00A
:102FA00093F8297817484A07002A08DA164B02884E
:102FB0001B689A4203D20422114329700124297804
:102FC0000A0708D5114A40881268904203D90820A0
:102FD00001432970012401F05FFE002C04D02A78FF
:102FE0000021082003F09CFF01F0D4FEF8BD000092
:102FF00014020020AC06002030020020380200201D
:10300000C6010020600C00209CD20008A0D200085D
:1030100030B585B02148007880073DD520486A4604
:10302000408910801F48C18A5180818A91801E4941
:103030000291808B9081D08101201074184C203433
:10304000A07D4007C00F5074684601F065FB002862
:1030500022D06846407CA17DFB25C2072940520F43
:103060001143A175104C2C3401280CD12078400755
:1030700009D4102003F082FA102003F0AFFA207870
:103080000421084320706846407C002804D1207841
:10309000410701D52840207005B030BD1402002042
:1030A000600C0020080500203801002030B585B0F4
:1030B0002148007880073DD520486A464089108025
:1030C0001F48018B5180418B91801E490291808B5A
:1030D0009081D08101201074184C2034207E40074C
:1030E000C00F5074684601F017FB002822D06846D4
:1030F000407C217EFB25C2072940520F11432176D7
:10310000104C2C3401280CD12078400709D41D2004
:1031100003F034FA1D2003F061FA207804210843FB
:1031200020706846407C002804D12078410701D5F2
:103130002840207005B030BD14020020600C002033
:10314000080500203A01002030B585B021480078FC
:1031500080073DD520486A46408910801F48C18BB2
:103160005180018C91801E490291C08C9081D08148
:1031700000201074184C2034A07D0007C00F50743C
:10318000684601F0C9FA002822D06846407CA17D3B
:10319000F725C2072940120F1143A175104C28349E
:1031A00001280CD12078000709D4112003F0E6F99A
:1031B000112003F013FA2078082108432070684694
:1031C000407C002804D12078010701D528402070D8
:1031D00005B030BD14020020600C0020080500205E
:1031E0003C01002030B585B02148007880073DD5EE
:1031F00020486A46408910801F48818C5180418C4C
:1032000091801E490291C08C9081D0810020107461
:10321000184C2034207E0007C00F5074684601F01F
:103220007BFA002822D06846407C217EF725C20721
:103230002940120F11432176104C283401280CD15B
:103240002078000709D41E2003F098F91E2003F00F
:10325000C5F920780821084320706846407C002882
:1032600004D12078010701D52840207005B030BD79
:1032700014020020600C0020080500203E01002000
:1032800010B5022009F010F800280FD0154840783A
:1032900040060BD5144915480A78130009F094FC30
:1032A0000504070D13191F0001F03CFF10BD007845
:1032B000C007C00F01F076FF10BD0078C007C00F37
:1032C00002F026F810BD0078C007C00F01F0C2FF61
:1032D00010BD0078C007C00F01F0EEFF10BD002048
:1032E000087010BD14020020DA000020280200201F
:1032F000F0B585B039480078000756D538486A4699
:10330000018C11803749CB8F5380898F918036494A
:1033100002913449403189889181D1810121117410
:1033200004462034A17D4906C90F51742E4D402713
:10333000BF261C35002911D0012936D1684601F07D
:10334000EBF9002831D06846407CA17DC2073140AE
:10335000520E1143A175012829D034E0808C012838
:1033600023D9684601F0D8F900281ED06846407C71
:10337000A17DC2073140520E1143A17501280BD126
:103380002878400608D4142003F0F8F8142003F03D
:1033900025F92878384328706846407C002804D1F5
:1033A0002878410601D53040287005B0F0BD287856
:1033B000400608D4142003F0E1F8142003F00EF9BD
:1033C0002878384328706846407C0028EDD128785A
:1033D0004106EAD530402870E7E7000014020020DB
:1033E000600C00200805002048010020F0B585B0E1
:1033F00038480078000755D537496A46088C108050
:1034000036480388538043889380354A02928088E7
:103410006A469081D081012010740C462034207EB1
:103420004006C00F50742E4D4027BF261C35002883
:1034300011D0012836D1684601F06EF9002831D04C
:103440006846407C217EC2073140520E11432176EE
:10345000012829D034E0888C012823D9684601F05E
:103460005BF900281ED06846407C217EC2073140AF
:10347000520E1143217601280BD12878400608D43A
:10348000212003F07BF8212003F0A8F828783843A6
:1034900028706846407C002804D12878410601D570
:1034A0003040287005B0F0BD2878400608D42120AF
:1034B00003F064F8212003F091F82878384328704D
:1034C0006846407C0028EDD128784106EAD5304096
:1034D0002870E7E714020020600C00204805002057
:1034E0004A01002070B586B03A480078C00657D52A
:1034F00039496A46488C90803848C388D38003890C
:103500001381374A0392C0896A4610825082002094
:1035100010750C462034E07DC007C00F5075304D4B
:1035200001261035002812D0012839D101A801F058
:10353000F3F8002834D0E07D41086846407D49001A
:10354000C207D20F1143E17501282BD036E0888CD9
:10355000012825D901A801F0DFF8002820D0E07D5E
:1035600041086846407D4900C207D20F1143E1750A
:1035700001280BD16878C00708D1152002F0FEFFA2
:10358000152003F02BF86878304368706846407D5A
:10359000002805D16878C10702D040084000687053
:1035A00006B070BD6878C00708D1152002F0E6FFAC
:1035B000152003F013F86878304368706846407D42
:1035C0000028EDD16878C107EAD040084000687053
:1035D000E6E7000014020020600C002048050020EF
:1035E0005401002070B586B03A480078C00657D51F
:1035F00039496A46488C908038488389D38043890A
:103600001381374A0392C0896A4610825082002093
:1036100010750C462034607EC007C00F5075304DC9
:1036200080261035002812D0012839D101A801F0D8
:1036300073F8002834D0607E41086846407D490018
:10364000C207D20F1143617601282BD036E0888C57
:10365000012825D901A801F05FF8002820D0607E5C
:1036600041086846407D4900C207D20F1143617688
:1036700001280BD12878C00908D1222002F07EFF52
:10368000222002F0ABFF2878304328706846407D46
:10369000002805D12878C10902D04006400E2870C4
:1036A00006B070BD2878C00908D1222002F066FF5C
:1036B000222002F093FF2878304328706846407D2E
:1036C0000028EDD12878C109EAD04006400E2870C4
:1036D000E6E7000014020020600C002048050020EE
:1036E0005601002070B586B038480078000754D5E0
:1036F00037496A46088C90803648438AD380038ACB
:103700001381354A0392008B6A4610825082012051
:1037100010750C462034A07DC00950752E4D8026B2
:103720001835002811D0012837D101A800F0F4FF86
:10373000002832D0A07D41066846407D490EC20176
:103740001143A17501282AD035E0C88C012824D95D
:1037500001A800F0E1FF00281FD0A07D41066846C7
:10376000407D490EC2011143A17501280BD1287873
:10377000C00908D1162002F001FF162002F02EFF2A
:103780002878304328706846407D002805D1287885
:10379000C10902D04006400E287006B070BD2878DE
:1037A000C00908D1162002F0E9FE162002F016FF2B
:1037B0002878304328706846407D0028EDD128786D
:1037C000C109EAD04006400E2870E6E71402002046
:1037D000600C0020480500204C01002070B586B028
:1037E00038480078000753D537496A46088C9080DE
:1037F0003648838AD380C38A1381354A0392008B6B
:103800006A4610825082012616750C462034207EAE
:10381000C00950752E4D1835002811D0012837D118
:1038200001A800F079FF002832D0207E41066846CA
:10383000407D490EC2011143217601282AD035E08E
:10384000C88C012824D901A800F066FF00281FD0E9
:10385000207E41066846407D490EC2011143217613
:1038600001280BD16878C00708D1232002F086FE1A
:10387000232002F0B3FE6878304368706846407DCC
:10388000002805D16878C10702D040084000687060
:1038900006B070BD6878C00708D1232002F06EFE24
:1038A000232002F09BFE6878304368706846407DB4
:1038B0000028EDD16878C107EAD040084000687060
:1038C000E6E7000014020020600C002048050020FC
:1038D0004E010020F0B585B038480078C00655D5B7
:1038E00037496A46488C10803648438B5380838B17
:1038F0009380354A0292408C6A469081D0810020A4
:1039000010740C462034E07D8007C00F50742E4D9B
:103910000227FD260C35002811D0012836D1684633
:1039200000F0FAFE002831D06846407CE17DC207F5
:103930003140920F1143E175012829D034E0C88C41
:10394000012823D9684600F0E7FE00281ED068460B
:10395000407CE17DC2073140920F1143E17501289F
:103960000BD16878800708D4172002F007FE1720D3
:1039700002F034FE6878384368706846407C00285E
:1039800004D16878810701D53040687005B0F0BD7A
:103990006878800708D4172002F0F0FD172002F0A5
:1039A0001DFE6878384368706846407C0028EDD179
:1039B00068788107EAD530406870E7E71402002094
:1039C000600C00204805002058010020F0B585B0AB
:1039D00038480078C00655D537496A46488C10806B
:1039E0003648038C5380C38B9380354A0292408CB7
:1039F0006A469081D081002010740C462034607E8D
:103A00008007C00F50742E4D0227FD260C3500286C
:103A100011D0012836D1684600F07EFE002831D052
:103A20006846407C617EC2073140920F1143617647
:103A3000012829D034E0C88C012823D9684600F039
:103A40006BFE00281ED06846407C617EC207314074
:103A5000920F1143617601280BD16878800708D452
:103A6000242002F08BFD242002F0B8FD6878384352
:103A700068706846407C002804D16878810701D5C9
:103A80003040687005B0F0BD6878800708D4242005
:103A900002F074FD242002F0A1FD687838436870BC
:103AA0006846407C0028EDD168788107EAD530402F
:103AB0006870E7E714020020600C00204805002031
:103AC0005A01002030B585B021480078C0073DD0AC
:103AD00020486946008808801F4842884A8002883A
:103AE0008A801E490291008969468881C881012522
:103AF0000D74184C2034A07D28404874684600F0AE
:103B00000BFE002822D0A07D41086846407C490079
:103B1000C207D20F1143A175104C343401280BD1C8
:103B20002078C00708D10E2002F028FD0E2002F0F8
:103B300055FD2078284320706846407C002805D138
:103B40002078C10702D040084000207005B030BD89
:103B500014020020600C0020080500203001002025
:103B600030B585B021480078C0073DD0204869466F
:103B7000008808801F4882884A80C2888A801E493F
:103B80000291008969468881C88101250D74184C0D
:103B90002034207E28404874684600F0BDFD00288F
:103BA00022D0207E41086846407C4900C207D20FDF
:103BB00011432176104C343401280BD12078C007F2
:103BC00008D11B2002F0DAFC1B2002F007FD207850
:103BD000284320706846407C002805D12078C10722
:103BE00002D040084000207005B030BD1402002013
:103BF000600C0020080500203201002030B585B09F
:103C00002248007800073FD521486A46008D108081
:103C10002048018F5180408F90801F4802901D489E
:103C2000403000889081D08100201074184C2034DE
:103C3000E07DC006C00F5074684600F06DFD00289E
:103C400022D06846407CE17DEF25C2072940D20E94
:103C50001143E175104C083401280CD16078C0067E
:103C600009D41A2002F08AFC1A2002F0B7FC60780E
:103C70001021084360706846407C002804D16078B9
:103C8000C10601D52840607005B030BD1402002087
:103C9000600C0020480500205C01002030B585B094
:103CA0002248007800073FD521486A46008D1080E1
:103CB0002048C18F5180808F90801F4802901D48FE
:103CC000403000889081D08100201074184C20343E
:103CD000607EC006C00F5074684600F01DFD0028CD
:103CE00022D06846407C617EEF25C2072940D20E73
:103CF00011436176104C083401280CD16078C0065D
:103D000009D4272002F03AFC272002F067FC6078F3
:103D10001021084360706846407C002804D1607818
:103D2000C10601D52840607005B030BD14020020E6
:103D3000600C0020480500205E01002030B585B0F1
:103D400021480078C0073DD020486A46408810804E
:103D50001F4841895180818991801E490291408A82
:103D60009081D08100201074184C2034A07D8007F1
:103D7000C00F5074684600F0CFFC002822D068467F
:103D8000407CA17DFD25C2072940920F1143A175FA
:103D9000104C303401280CD12078800709D40F2032
:103DA00002F0ECFB0F2002F019FC207802210843FE
:103DB00020706846407C002804D12078810701D516
:103DC0002840207005B030BD14020020600C002097
:103DD000080500203401002030B585B02148007866
:103DE000C0073DD020486A46408810801F48018A9D
:103DF0005180C18991801E490291408A9081D08171
:103E000000201074184C2034207E8007C00F50749E
:103E1000684600F081FC002822D06846407C217E64
:103E2000FD25C2072940920F11432176104C3034F2
:103E300001280CD12078800709D41C2002F09EFBB9
:103E40001C2002F0CBFB207802210843207068463A
:103E5000407C002804D12078810701D528402070BB
:103E600005B030BD14020020600C002008050020C1
:103E70003601002000B505484078400605D5FEF71C
:103E800057FFFEF753FFFEF789FF00BD1402002025
:103E900010B5034800F008F8024800F06DF810BDB6
:103EA000180900201E0A0020F8B504466078002892
:103EB0000AD0E51D0026F9352D4F012808D002282B
:103EC0002BD003283FD06670204606F09FFAF8BD3D
:103ED0003868202188433860204601F006F9207AAE
:103EE00000280BD1687903280BD006280DD01028A4
:103EF0000FD0A6710120207208206072022060702D
:103F0000E2E7204606F02AFFF8E7204606F070FFB9
:103F1000F4E7204606F0B6FFF0E76879032804D0FE
:103F2000062806D0102807D103E0204606F096FBAD
:103F300002E0204606F0BCFE3868082108433860DD
:103F40000C49012008700B4A50780028BCD06670DC
:103F5000A672E6722673667356702670386804215E
:103F60000843386039682020014339601670ABE798
:103F700000380140A0010020F8B504466078002810
:103F80000AD0E51D0026F9352D4F012808D002285A
:103F90002BD003283FD06670204606F017FBF8BDF3
:103FA0003868202188433860204601F09EF8207A46
:103FB00000280BD1687903280BD006280DD01028D3
:103FC0000FD0A6710120207208206072022060705C
:103FD000E2E7204606F0C2FEF8E7204606F008FFBA
:103FE000F4E7204606F04EFFF0E76879032804D096
:103FF000062806D0102807D103E0204606F02EFB45
:1040000002E0204606F054FE386808210843386074
:104010000C49012088700B4AD0780028BCD066700B
:10402000A672E67226736673D6702670386804210D
:104030000843386039682020014339609670ABE747
:1040400000440040A00100207047000010B5114856
:10405000817882681143C268114311D10169002936
:104060000ED1017800290BD14178002908D141698E
:10407000002905D18169002902D1C069002801D039
:1040800008F0FEFB04480078002801D008F0F8FB97
:1040900010BD0000040100207D01002010B5094C76
:1040A000207801280CD10A2008F09CFD0020207007
:1040B000BFF34F8F05490448C860BFF34F8FFEE739
:1040C00010BD0000A40100200400FA0500ED00E08E
:1040D00010B502F0C9FC01F08BF910BD30B585B008
:1040E0002248007840073FD521486A46808C1080DE
:1040F0002048418D5180018D91801F490291008E91
:1041000090811E494018D08101201074184C203431
:10411000A07DC006C00F5074684600F0FDFA00286C
:1041200022D06846407CA17DEF25C2072940D20EEF
:104130001143A175104C243401280CD12078C006FD
:1041400009D4122002F01AFA122002F047FA20785D
:104150001021084320706846407C002804D1207854
:10416000C10601D52840207005B030BD14020020E2
:10417000600C00200805002040010020B80B000062
:1041800030B585B02248007840073FD521486A46BF
:10419000808C10802048818D5180C18D91801F4975
:1041A0000291008E90811E494018D0810120107428
:1041B000184C2034207EC006C00F5074684600F0B2
:1041C000ABFA002822D06846407C217EEF25C2074A
:1041D0002940D20E11432176104C243401280CD1F1
:1041E0002078C00609D41F2002F0C8F91F2002F071
:1041F000F5F920781021084320706846407C00289B
:1042000004D12078C10601D52840207005B030BD0A
:1042100014020020600C002008050020420100204C
:10422000B80B000030B585B02248007840073FD574
:1042300021486A46C08C10802048818E5180418E72
:1042400091801F490291408F90811E494018D08172
:1042500001201074184C2034A07D8006C00F5074CB
:10426000684600F059FA002822D06846407CA17DBB
:10427000DF25C2072940920E1143A175104C20344E
:1042800001280CD12078800609D4132002F076F999
:10429000132002F0A3F920782021084320706846FB
:1042A000407C002804D12078810601D52840207068
:1042B00005B030BD14020020600C0020080500206D
:1042C00044010020B80B000030B585B022480078CA
:1042D00040073FD521486A46C08C10802048C18ED7
:1042E0005180018F91801F490291408F90811E491A
:1042F0004018D08101201074184C2034207E800694
:10430000C00F5074684600F007FA002822D06846B3
:10431000407C217EDF25C2072940920E1143217681
:10432000104C203401280CD12078800609D420209C
:1043300002F024F9202002F051F9207820210843CE
:1043400020706846407C002804D12078810601D581
:104350002840207005B030BD14020020600C002001
:104360000805002046010020B80B000010B55A488F
:104370004078C0097DD059484178002979D14168F9
:10438000491C4160C41C2078621CC007C00F012179
:1043900003F0D4FF2078621C8007C00F022103F0D5
:1043A000CDFF4F48621C408F0321C0B203F0C6FF0F
:1043B0004C4C6078494AC007C00F121D042103F01D
:1043C000BDFF6078454A8007C00F121D052103F02C
:1043D000B5FF434C414A2034207E121DC007C00F58
:1043E000062103F0ABFF207E3C4A4007C00F121DA0
:1043F000072103F0A3FF207E384AC006C00F121D1C
:10440000082103F09BFF207E344A8007C00F121D55
:10441000092103F093FF207E304A0007C00F121DD0
:104420000A2103F08BFF207E2C4A8006C00F121D4C
:104430000B2103F083FF607E284AC007C00F121DC6
:104440000C2103F07BFF607E244A8007C00F121D01
:104450000D2103F073FF207E204A4006C00F121D7D
:104460000E2103F06BFF207E1C4AC009121D0F2194
:1044700000E02FE003F062FF607E184A4007C00FA3
:10448000121D102103F05AFF312007F01DFE134AC0
:104490001221121D03F052FF322007F015FE0F4AC1
:1044A0001321121D03F04AFF3E2007F00DFE0446C3
:1044B000342007F009FE2018C0B2084A1421121D4A
:1044C00003F03CFF3D2007F0FFFD044A1121121DBF
:1044D00003F034FF10BD0000140200207C01002016
:1044E000600C00203002002010B5042007F0DCFE34
:1044F000002814D00A4C2078C00710D0FFF7A4FD84
:1045000005F074F902F018F901F010FE0548007882
:104510004007C10F2078C007C00F01F027FE10BD73
:10452000140200202802002010B586B0224800782E
:10453000C0063ED521486A46C08B90802048C18C79
:10454000D180818C11811F490391808D108250820E
:1045500001201075194C2034E07D8006C00F507585
:1045600001A800F0D9F8002823D0E17DDF20014028
:104570006846407DC207920E1143E175114C143418
:1045800001280CD16078400709D4182001F0F6FF0B
:10459000182002F023F86078042108436070684610
:1045A000407D002805D16078410702D5FB210840F5
:1045B000607006B010BD000014020020600C0020E6
:1045C000480500205001002010B586B02248007830
:1045D000C0063ED521486A46C08B90802048018D98
:1045E000D180418D11811F490391808D10825082AD
:1045F00001201075194C2034607E8006C00F507564
:1046000001A800F089F8002823D0617EDF20014056
:104610006846407DC207920E11436176114C1434F6
:1046200001280CD16078400709D4252001F0A6FFAD
:10463000252001F0D3FF60780421084360706846AC
:10464000407D002805D16078410702D5FB21084054
:10465000607006B010BD000014020020600C002045
:10466000480500205201002070B51B4DFF22298A09
:10467000688AF53209185043FDF7FFFBFF214B31E3
:10468000884201D9154802E00003FDF7F6FB144EFD
:1046900004467060688F7D22D200A98F5043FDF7D9
:1046A000ECFBE98A414388000E49FDF7E6FB0E4921
:1046B0006143090B081A81B231807D20C001444357
:1046C000200C7080094C204607F011FF71882046AD
:1046D00007F00FFF70BD0000C8040020FF0F0000AE
:1046E0008C0100201027000096020000000400400A
:1046F00010B5084C2078002804D0012807D00020ED
:10470000207010BD03F07AF90120207010BD08F070
:10471000CDF910BD8501002070B5037C012B03D8B5
:1047200041888288914201D2002070BD0124457CDD
:10473000E61A0023B54216D102888A420CD381685A
:104740000A88521C92B20A8081898A4222D38168E7
:104750000B80017C41741DE081680888002819D015
:10476000401E088016E0018891420DD881680A88B1
:10477000521C92B20A80C1898A420BD381680B8095
:10478000017C611A417405E081680888002801D025
:10479000401E0880012070BD10B5012007F084FD87
:1047A000002815D00B4C2078002811D005F0C6F851
:1047B00001F0C4FF207805F08BFB00202070064834
:1047C000C089002804D005480178490849000170D3
:1047D00010BD000005020020C80D0020340200209A
:1047E00010B5FFF755FB00F05FF910BD70B5334809
:1047F0004078800710D532480178C9070CD141783C
:104800002026314341702F4C6078800605D52E4814
:10481000022201781143017070BD2C484078800657
:1048200008D42078C00605D42078800602D42078E9
:104830004006F1D5234D123D2878030008F0C4F955
:104840000D082C1114171A26290B1D20230E2F00DA
:1048500007F018FB25E007F0ADFA22E007F050FB67
:104860001FE007F0EBFA1CE007F086FB19E007F009
:1048700093F816E007F026F913E007F04DF910E081
:1048800007F0BEF90DE007F02FFA0AE007F04EFB43
:1048900007E007F04DFB04E007F0A2F801E000207C
:1048A00028702878012804D06078DF2108406070E3
:1048B00070BD60783043607070BD00002802002039
:1048C00030020020C60100207F01002014020020D9
:1048D000F0B573480278DF210A40027001461439AE
:1048E0008B79CA78934204D08A71027820231A43C4
:1048F000027002785208520002700278FD2632409F
:1049000002700378FB22134003700278F7231A40E9
:1049100002700278EF231A400270CB798A78012462
:10492000042593423BD0CA71130008F04DF90504E9
:104930000810172B38000278224302702FE00A7A01
:10494000521C0A72027802231A43027027E04A7A44
:10495000521C4A7202782A43027020E08A7A521C62
:104960008A72CA7A521CCA720A7B521C0A734A7B28
:10497000521C4A738A7B521C8A73027808231A439A
:1049800002700CE0CA7B521CCA730A7C521C0A7467
:104990004A7C521C4A74027810231A43027002782F
:1049A000BF231A4002700B7A0022052B04D30A722F
:1049B000037840273B43037003785B065B0E03706C
:1049C0004B7A0A2B04D34A72077880231F4307705F
:1049D00043785B085B00437043783340437043780F
:1049E000FB26334043704378F726334043704378C7
:1049F000EF26334043708B7A142B03D38A724378AB
:104A000023434370CB7A142B04D3CA724378022613
:104A1000334343700B7B142B03D30A7343782B432C
:104A200043704B7B142B0ED34A73437808263343D1
:104A300043701C4EB38A1F465B07DB179C43AF4392
:104A4000A3001F43B7828B7B142B04D38A73437854
:104A50001024234343704378DF2423404370447879
:104A6000BF231C40447043785B065B0E4370CB7BD6
:104A7000642B04D3CA7343782024234343700B7CF4
:104A8000642B04D30A74447840231C4344704B7C49
:104A9000642B04D34A744178802211434170F0BDE5
:104AA00014020020000400487047000010B586B0D2
:104AB00022480078C0063ED521486A460089908089
:104AC0002048018ED180C18D11811F490391C08E74
:104AD0001082508201201075194C2034E07D40076F
:104AE000C00F507501A8FFF717FE002823D0E17D05
:104AF000FB2001406846407DC207520F1143E1751B
:104B0000114C241D01280CD16078000709D419200C
:104B100001F034FD192001F061FD6078082108439F
:104B200060706846407D002805D16078010702D595
:104B3000F7210840607006B010BD0000140200208C
:104B4000600C0020480500206001002010B586B0F0
:104B500023480078C00641D522486A4600899080E3
:104B60002148418ED180818E118120490391C08ED0
:104B700010825082012010751A4C2034607E40074C
:104B8000C00F507501A8FFF7C7FD002826D0617E31
:104B9000FB2001406846407DC207520F11436176F9
:104BA000124C241D01280FD1607800070CD4262058
:104BB00001F0E4FC262001F011FD112007F084FA39
:104BC00060780821084360706846407D002805D160
:104BD0006078010702D5F7210840607006B010BD6B
:104BE00014020020600C0020480500206201002013
:104BF00070B50A4C8025A08AA843A082012007F046
:104C0000F1FFA08A2843A082052007F0EBFFA08ACD
:104C1000A843A0820A2007F0E5FF70BD00140048F9
:104C200010B5032007F040FB002833D0FEF74AFF01
:104C3000FEF796FFFFF782F8FFF7CEF8FEF7E8F9E8
:104C4000FEF734FAFEF780FAFEF7CCFAFFF76CFCB9
:104C5000FFF7BAFCFFF72AFFFFF778FFFFF7E2FA4A
:104C6000FFF732FBFFF73AFAFFF78AFAFEF7C6FFC3
:104C7000FFF714F8FEF736FDFEF7B0FDFEF72AFE4B
:104C8000FEF7A4FEFEF734FBFEF7B0FBFEF72AFCAE
:104C9000FEF7A8FC10BD0000F8B52A4C2A4D60783C
:104CA000012602272A78002804D001280ED00228E5
:104CB0001FD112E090071CD50D2007F005FA2348FC
:104CC0000178FB2211400170667012E020488022BA
:104CD00001781143017067700BE03A432A7000219C
:104CE000082002F01DF92878FD21084028700020D6
:104CF0006070A078002811D001281CD002280CD1A7
:104D00002A7832432A700021082002F009F9287815
:104D10004008400028700020A070F8BD2878C00727
:104D2000FBD00A480178FB22114001700A2007F0ED
:104D3000CBF9A670F8BD06488022017811430170B6
:104D4000A770F8BD38020020AC0600202802002021
:104D5000F000002010B50E4B002812D0CA071946EB
:104D6000D20F4979012802D002280AD104E048086C
:104D700040001043587104E0FD2001405000014301
:104D800059715A790521082002F0CAF810BD0000B7
:104D9000AC060020F8B50020354C34492182E1787A
:104DA00001270025334E002902D0012954D10EE0FD
:104DB00007F002F96421FDF760F8A18A401C491C44
:104DC00089B2A182884247D8A582E77044E02A4987
:104DD0008A8C022A02D8C98C022901D9012006E056
:104DE0002649227909788A4201D0217101200028C0
:104DF00007D0E58265832583A5830020C0432082F8
:104E00002AE0FDF76DFF012804D0FDF769FF0028B7
:104E100012D020E0208B4B21401C80B2C90020839F
:104E2000884204D925833078202108433070E08AF5
:104E3000002810D0E5820EE0E08A401C80B2E082BB
:104E4000022804D9E5823078102108433070208B85
:104E5000002800D0258327703078E08A2081208BBD
:104E60006081608BA081A08BE081F8BD34120000CE
:104E700038020020C6010020600C0020B50100208F
:104E800010B50023224A002811D022490A24098A99
:104E9000022817D0032827D053709370D3700323B0
:104EA000521C0121082002F009F8C0B210BD537055
:104EB0009370D3700323521C0121082001F0FEFFE0
:104EC000C0B210BD15230846184050704809204054
:104ED0009070880A1840D0700323521C01210820CA
:104EE00001F0ECFFC0B210BD0846204050700A48E7
:104EF00001408805C00E90704804C00ED070032396
:104F0000521C0121082001F0D9FFC0B210BD0000E1
:104F1000AC060020DA000020AAAA0000F0B50025A7
:104F20001C4900280DD01C4A1C4E148A1C4A1278B9
:104F3000531E1B019B19022805D0032816D04D874C
:104F4000F0BD4D87F0BD4D871648044000200AE0B3
:104F50001E5C2746F740FE074D8FF60F864035430F
:104F60004D87401CC0B29042F2D3F0BD4D870E4831
:104F7000044000200AE01E5C2746F740FE074D8FE4
:104F8000F60F864035434D87401CC0B29042F2D3A5
:104F9000F0BD0000600C0020DA00002014D30008EF
:104FA0008401002055550000AAAA0000F0B5002297
:104FB0003A4845883A49002088713A490E883A496A
:104FC00009784DE0394C235C002B02D0022B21D014
:104FD0003FE0324B4700403BDB5B324FB34211D3E3
:104FE0007F887F19BB420DD3304F10373B5C5B1C71
:104FF000DBB23B54022B2CD30222225400223A541F
:10500000012226E0294F10373B5C002B21D05B1E8C
:105010003B541EE0214B4700403BDB5B214FB3423A
:1050200003D3BF887F19BB420CD2204F10373B5CA3
:105030005B1CDBB23B54022B0BD3002222543A54AC
:10504000012206E0194F10373B5C002B01D05B1E9C
:105050003B54134B245C9F79E4199C71401CC0B2F3
:105060008842AFD3002A17D00D4B00201882104C75
:105070004A1E12010D4D14190CE02A5C002A01D0C1
:10508000012200E00022265CB2401E8A32431A82CE
:10509000401CC0B28842F0D3F0BD0000600C00207C
:1050A000DA000020C804002084010020AC030020A6
:1050B00014D3000870B50446002010E08023257842
:1050C000060603D54006000E504001E04006000EE3
:1050D0001D4200D050405B08002BF1D1641C0B46F0
:1050E000491EC9B2002BE9D170BD70B504462078C5
:1050F000801E80B221188A7AC97A090251188DB2AD
:10510000C1B220460A3005F0F7FD01460020A94251
:1051100001D1207270BDA071012020720220607246
:1051200070BD0000FEB5002018490A461032002468
:105130000C541454401CC0B21028F9D3144D2C82C6
:10514000EC7114484487144A54709470D47003234B
:10515000521C0121082001F0B1FE10480A210078FC
:10516000FCF78BFE012606290DD1802700976846A3
:105170000671447184710A4C6946204601F076FA42
:10518000A08AB843A0822E70FEBD0000AC030020B0
:10519000DA000020600C0020AC0600208401002012
:1051A00000040048F8B584462749284C8E8C228993
:1051B000CB8C00250A2E2AD80A2B28D8244F088801
:1051C0003F88B84223D3224F0889BF88B8421ED3F4
:1051D000604600281BD0A078002808D0521C90B24E
:1051E000FF212D312081884210D32581A570FFF742
:1051F000DDFEA07900281ED00220207060780028F3
:1052000004D1122006F060FF01206070F8BD488FC5
:10521000002805D1208A002802D1E079002800D09A
:1052200025700A2E01D80A2BF0D90120A070002A7F
:10523000ECD02581F8BD0420207060780028F9D0DA
:1052400000206070F8BD0000600C0020DA00002033
:10525000C804002010B50021154C002803D1A181FD
:1052600021710120207020790422002803D0012818
:1052700013D0217110BD208A0E49084201D122703D
:1052800010BD0320FFF7FCFD0028F9D10320FFF734
:1052900045FE2079401C207110BDA089401C80B2C1
:1052A000A0810528F8D3A1812270217110BD0000D2
:1052B000DA000020AAAA000070B500210125124CD6
:1052C000002802D1E181617125706079002803D046
:1052D00001280CD0617170BDA079002805D1FFF7BD
:1052E000CFFD002801D1FFF719FE257070BDE089C0
:1052F000064A401C80B2E081D28F9042F6D3E18111
:105300002570617170BD0000DA000020C804002023
:1053100010B50021154C002803D16181E1700120F6
:105320002070E0780322002803D0012813D0E17018
:1053300010BD208A0E49084201D1227010BD022002
:10534000FFF79EFD0028F9D10220FFF7E7FDE07886
:10535000401CE07010BD6089401C80B2608107284D
:10536000F8D361812270E17010BD0000DA000020E6
:10537000555500007CB505461C4C0823221D042110
:10538000284601F09BFD064608236A46042128466C
:1053900001F038FC8019694609782279914222D1BE
:1053A00069464978627991421DD169468978A37925
:1053B000994218D16946C978E279914213D1694678
:1053C0000979227A91420ED169464979627A9142ED
:1053D00009D169468979A27A914204D16946C9798D
:1053E000E27A914200D001207CBD0000AC06002092
:1053F00010B51948007840062DD5092006F054FF55
:10540000002828D015484078400624D51448407814
:10541000401F030007F0D8FB0504070A0D10120017
:1054200000F062F80AE000F045F807E000F01CF830
:1054300004E000F03DF801E000F054F8094840783D
:1054400009228007C00FD2060003918A01231B03A3
:1054500099430143918210BD2802002014020020CC
:105460006A0100203002002010B50D480E49038C5F
:105470000C48002204894888A3420DD2401C80B207
:105480004880032807D94A8008484278FD231A40FB
:1054900042700620487010BD0028FCD04A8010BD24
:1054A000600C00207A0600206A01002030020020F3
:1054B0007047000007480849008CC988884207D314
:1054C000064841780222114341700549072048707F
:1054D00070470000600C00207A0600203002002097
:1054E0006A010020704700000748082241781143F4
:1054F0004170064801784906490E017002490620AC
:105500000839487070470000720100203402002002
:1055100010B50446002C02D0012C7DD189E09848BA
:10552000C188803880897838814223DB9448C188DB
:1055300080388089323881421CDA9248C07B5F28EB
:1055400018DA91480088401C80B28F4908800828EA
:1055500050DB002008808B48C07B401C8949C87301
:10556000C8696421FCF789FC8649096940188549A6
:1055700008613FE08248C1888038808932388142A2
:1055800038DB8048C07B642834DA7E48C07B5F28E3
:1055900018DD7E480088401C80B27C4908800328C2
:1055A00028DB002008807748C07B401C7549C87301
:1055B000C8696421FCF761FC7249096940187149A6
:1055C000086117E072480088401C80B2704908806A
:1055D00003280FDB002008806A48C07B401C694913
:1055E000C873C8696421FCF748FC6649096940181A
:1055F0006449086167480088002802D00020654996
:10560000088065480088002802D000206249088090
:1056100062480088002800E0AEE002D000205F4928
:1056200008805F480088002802D000205C4908807C
:10563000A3E053480189803840897830814223DCD7
:105640004F48018980384089323081421CDD4D4805
:10565000C07B052818DD4F480088401C80B24D49AA
:105660000880082850DB002008804648C07B401E88
:105670004449C873C8696421FCF7FFFB41490969C3
:10568000081A404908613FE03D4801898038408957
:105690003230814238DC3B48C07B002834DD394859
:1056A000C07B032818DA3C480088401C80B23A4985
:1056B0000880032828DB002008803248C07B401E79
:1056C0003049C873C8696421FCF7D7FB2D490969C3
:1056D000081A2C49086117E030480088401C80B245
:1056E0002E49088003280FDB002008802548C07B56
:1056F000401E2449C873C8696421FCF7BEFB2149D8
:105700000969081A1F4908611E48C07B012816DC78
:105710001B48018980384089323081420FDD1948A9
:10572000C07B1849C87300208860C97B154AD269BC
:10573000514308466421FCF7A0FB12490861124856
:105740000088002802D000200F4908800F480088F8
:10575000002802D000200D4908800D48008800284C
:1057600002D000200A4908800E480088002802D094
:1057700000200C49088000E000BF00BF10BD000001
:10578000C80D0020EC0D00207603002078030020D7
:105790007A0300207E030020800300208203002083
:1057A000840300207C03002010B50446002C02D0A6
:1057B000012C7DD1ACE0BB48C18880388089643839
:1057C000814223DBB748C088B6498039898988423D
:1057D0001CDAB548C07B5F2818DAB4480088401C42
:1057E00080B2B24908800A2850DB00200880AE4809
:1057F000C07B401CAC49C873C8696421FCF73DFB01
:10580000A94909694018A84908613FE0A548C0882E
:10581000A44980398989884238DBA348C07B642841
:1058200034DAA148C07B5F2818DDA1480088401CFD
:1058300080B29F490880082828DB002008809A4809
:10584000C07B401C9849C873C8696421FCF715FBEC
:105850009549096940189449086117E095480088FE
:10586000401C80B29349088004280FDB0020088088
:105870008D48C07B401C8C49C873C8696421FCF703
:10588000FCFA894909694018874908618548C18837
:1058900080388089323081421DDB8348C07B642898
:1058A00019DA85480088401C80B28349088000E0EE
:1058B000F4E002280FDB002008807B48C07B401CFE
:1058C0007949C873C8696421FCF7D7FA7649096930
:1058D00040187549086179480088002802D00020E6
:1058E0007649088076480088002802D00020744954
:1058F000088074480088002802D000207149088080
:1059000071480088002802D000206F490880C6E056
:1059100064480189803840896430814223DC6148D1
:10592000008960498039498988421CDD5E48C07B16
:10593000052818DD61480088401C80B25F49088056
:105940000A2850DB002008805748C07B401E56497B
:10595000C873C8696421FCF790FA53490969081AA9
:10596000514908613FE04F4800894E4980394989D3
:10597000884238DC4C48C07B002834DD4A48C07B74
:10598000052818DA4E480088401C80B24C4908802F
:10599000082828DB002008804348C07B401E42497D
:1059A000C873C8696421FCF768FA3F490969081A95
:1059B0003D49086117E043480088401C80B24149D6
:1059C000088004280FDB002008803748C07B401E79
:1059D0003549C873C8696421FCF74FFA324909692F
:1059E000081A314908612F480189803840893238C6
:1059F00081421BDC2C48C07B002817DD3248008820
:105A0000401C80B23049088002280FDB002008804B
:105A10002548C07B401E2449C873C8696421FCF72F
:105A20002CFA21490969081A1F4908611E48C07BE0
:105A3000012816DC1B4800891A49803949898842A7
:105A40000FDD1948C07B1849C87300208860C97BE6
:105A5000154AD269514308466421FCF70EFA1249EF
:105A6000086112480088002802D000200F490880F1
:105A70000F480088002802D000200D4908800D48FA
:105A80000088002802D000200A4908800A480088BF
:105A9000002802D000200849088000E000BF00BFB5
:105AA00010BD0000C80D0020EC0D00206603002092
:105AB000680300206A0300206C0300206E030020AE
:105AC00070030020720300207403002010B5044608
:105AD000002C02D0012C24D111E01348C0780028FA
:105AE00002D0012808D103E02046FFF75DFE04E064
:105AF0002046FFF70DFD00E000BF00BF12E00A489E
:105B00000079002802D0012808D103E02046FFF7E1
:105B10004BFE04E02046FFF7FBFC00E000BF00BFA7
:105B200000E000BF00BF10BDC80D0020002904D058
:105B3000016801221143016070470168014A114068
:105B400001607047FEFF0000F0B501683A4A11405D
:105B500001600021016041608160C1603749374ABE
:105B600008390F23904203D1486818434860F0BDBC
:105B7000324AF0241432904203D1486820434860EE
:105B8000F0BD2E4A0F2528322D02904203D14868DD
:105B900028434860F0BD294E0F223C361203B04224
:105BA00003D1486810434860F0BD244F0F2650379A
:105BB0003604B84203D1486830434860F0BD1F4FF7
:105BC0006437B84205D148680F2212051043486077
:105BD000F0BD1A4F7837B84205D148680F22120637
:105BE00010434860F0BD1649154F0839B84203D13B
:105BF000486818434860F0BD114B1433984203D1F4
:105C0000486820434860F0BD0D4B2833984203D1CB
:105C1000486828434860F0BD094B3C33984203D1A3
:105C2000486810434860F0BD054A50329042FAD1AE
:105C3000486830434860F0BDFEFF000008000240A5
:105C40000804024030B503680C4A13400C6A8A68A5
:105C50004D6922430C692C4322438C692243CC6951
:105C600022434C6A22438C6A22431A430260CA6868
:105C700042600A6882604968C16030BD0F80FFFFE2
:105C80000021016041608160C16001614161816109
:105C9000C16101624162816270470000F0B500207D
:105CA000394A3B4D11465E310C5E384913880A78FB
:105CB00020E0511E374E09018919095C364E490012
:105CC000715A0126B602B34201D1002C02D05943C9
:105CD000891209192C4F4600403FBF5B4F43B91250
:105CE000294F1E37BF5FC919002900DC0021A953C5
:105CF000401CC0B29042DCD3202A07D2274803E0E0
:105D000051006852521CD2B2202AF9D3204A1E4FA9
:105D10004032908C7C37002818D000201A4B41006C
:105D20009C335B5A002B2CD0795A948C61438C1392
:105D3000CE13A419491464185B1E59006B5A1B1B1F
:105D40006B52401CC0B21028E8D31AE0D08C002857
:105D500017D000200C4B41009C335B5A002B10D015
:105D6000795AD48C61435B1E5B00EC5A8E13A419E4
:105D7000CE13491471186118E952401CC0B21028A2
:105D8000E8D300F04DF8F0BD0C04002084010020A1
:105D9000200C002014D30008E406002049EE000087
:105DA000F0B50022194B00250026002400201949D7
:105DB000174F09788C460CE04100795A0C198A4239
:105DC00001D20A4605468B4201D90B460646401CC5
:105DD000C0B26045F0D310480F4980885E316043FF
:105DE000840A0420085E7D21C900484320180B491D
:105DF0004843010C06484030418102804380D11A5B
:105E000001816D1C8580761CC680F0BDFF7F00007F
:105E1000200C0020840100200C04002098190000B0
:105E200006480188064801870649098841870649CE
:105E30000988818705490988C18770474002002089
:105E4000200C0020420200204402002046020020D4
:105E500070B52448244900880122D203C9689042C1
:105E600003D84843800A002105E001221204101AD9
:105E70004843800A01211D4A7D2413465E332401D4
:105E8000012909D0A04214DDD28842430620185EC1
:105E90006310584310180DE0A04208DD12894243F8
:105EA0000820185E7D23DB005843101802E08002B2
:105EB00000E08002002800DC002000250C4C0129B5
:105EC00007D06421FBF7E3FF8001000CA084E58488
:105ED00070BDA5846421FBF7DAFF8001000CE0842B
:105EE00070BD000024070020F40000200C040020F6
:105EF000600C0020F8B53C483C4D00780A2806D8D4
:105F00000021062801D9298201E0E98129820126A0
:105F1000002420E0364867003818008D0A21FBF77E
:105F2000ACFF283821462531324A4900525A4243B3
:105F300030485E30405E101881120A2041432B48E1
:105F4000FF319131403838184C2211524C3002F058
:105F500005FB641CE4B2B442DCD3274F0A21386845
:105F6000FBF795FF2838234C4034E18A264641430D
:105F70005E361620305E081880120A214843FF3032
:105F8000913028831948183002F0E8FA208B272135
:105F9000C94348431821715E401880120A214843C2
:105FA000FF3091306883608B2721C94348431A2111
:105FB000715E401880120A214843FF309130A88357
:105FC000B868FBF764FF2838A18B41431C20305E82
:105FD000081880120A214843FF309130E8830348B3
:105FE0001E3002F0BBFAF8BD84010020600C0020D6
:105FF000E4060020CC030020A003002010B50022FE
:106000000B4B00210B4C48000019403080890028C0
:1060100005D0824200D20246834200D90346491C81
:10602000C9B20929EFD3034840300284438410BD2C
:10603000FF7F0000200C002009E00B220221491EF6
:10604000C9B20029FBD1521ED2B2002AF6D1401E9D
:10605000411CF2D17047000070B504460D4631482E
:10606000807A002802D0012859D157E0002D06D0AF
:10607000012D17D0022D28D0032D4CD138E0002C53
:1060800007D0012C0BD1284A9188106800F038FB0A
:1060900006E0254A9188106800F030FB00E000BF60
:1060A00000BF39E0002C07D0012C0BD11E4A91898A
:1060B000906800F025FB06E01B4A9189906800F08B
:1060C0001DFB00E000BF00BF26E0002C07D0012C24
:1060D0000BD1154A918A106900F012FB06E0124AB2
:1060E000918A106900F00AFB00E000BF00BF13E0D6
:1060F000002C07D0012C0BD10B4A918B906900F03A
:10610000FFFA06E0084A918B906900F0F7FA00E088
:1061100000BF00BF00E000BF00BF01E000E000BF23
:1061200000BF70BD0C0D0020280D002010B50D4CD7
:10613000A07A002814D00C494878401CC0B248709E
:106140000A280DD300204870A07D4007C10F012010
:10615000FEF700FEA07D0007C10F0220FEF7FAFD4A
:1061600010BD00000C0D00207801002070B5054620
:106170000C46002D00D170BD204602F023FA00BF6E
:10618000F9E7000030B5BDB0842226491CA8FBF712
:10619000DBFD4022234984310CA8FBF7D5FD3022DA
:1061A0002049C4316846FBF7CFFD002000230122BF
:1061B0001D4C1E4D9202410062526B52401CC0B2F7
:1061C0002F28F8D31A4A2F209070D3700020194C32
:1061D0001CAB41005D5A6552401CC0B24128F8D347
:1061E000154890604011D060C01310610020134C1E
:1061F0000CAB41005D5A6552401CC0B22028F8D358
:106200000020C043906100200D4C6B4641005D5A58
:106210006552401CC0B21828F8D30A48D0613DB07E
:1062200030BD0000B4D00008CC0300202A040020B8
:106230000401002008050020FFFFFF3FC8040020E4
:106240007A060020FFFFFF0070B500200E4B0022F1
:1062500041005A54C9184A70401CC0B26428F7D390
:106260000A4D2A7000247D26F60060008019002166
:1062700006F0FDFB641CE4B2642CF6D34B202978B5
:10628000000106F0F4FB70BDAB0700207C0100208C
:10629000F8B50020204B214C214D002241005A52DC
:1062A00062526A520021491CC9B20629FBD3401C24
:1062B000C0B20A28F2D31B4802701B4802701B4868
:1062C000027000267700F81DFF30E15BF83006F021
:1062D000CEFB1748E95B381806F0C9FB0020401CCC
:1062E000C0B20628FBD3761CF6B20A2EEAD30E48BB
:1062F00001784520C00006F0BAFB0C4801780C4834
:10630000183006F0B4FBFFF79FFF05F0A9FE09491E
:10631000094806F081FBF8BD8A0500209E05002093
:10632000B20500202A0100202B0100202C010020B2
:106330001202000038110000FC3F000010B50120DF
:1063400000F064F8002807D0012000F059F8074851
:106350000822417811434170022000F057F80028CC
:1063600002D0022000F04CF810BD0000F000002028
:1063700010B5082000F04AF8002802D0082000F0EC
:106380003FF810BD70B501252D03284600F03EF8FA
:106390006C0000281AD017486421808AFBF76DFD35
:1063A000FFF74AFE1448018AC9040CD4818A6200AE
:1063B00091439143A143A1438182104901208870F8
:1063C0000D2005F081FE284600F01AF8204600F066
:1063D0001DF8002802D0204600F012F80124A40283
:1063E000204600F013F8002802D0204600F008F8FC
:1063F00070BD0000C8040020000400481602002000
:106400000149486170470000000401400146002036
:10641000024A52690A4200D001207047000401403C
:1064200010B5194983790268002B26D00B68934375
:106430000B604A6803689A434A60027952181368ED
:106440000468234313608A6803689A438A60CA68B1
:1064500003689A43CA604279102A05D051180A6825
:10646000006802430A6010BD8A6803681A438A60A4
:10647000CA6800680243CA6010BD0079401801680C
:106480009143016010BD0000000401400149C86053
:106490007047000000200240F0B506460B273F047D
:1064A000384600F05BF804280FD1084C206902251B
:1064B00028432061666120694021084320613846F5
:1064C00000F04CF82169A9432161F0BD0020024091
:1064D00004200849CA68D20701D001207047CA6861
:1064E000D20601D502207047C9684907FBD50320B1
:1064F00070470000002002400248016980221143D9
:106500000161704700200240F0B505460E460B279A
:106510003F04384600F022F804280CD1064C2069CC
:106520000121084320612E80384600F017F82169C8
:10653000490849002161F0BD00200240044801697A
:10654000090603D5034941600349416070470000D3
:106550000020024023016745AB89EFCD00B503461B
:10656000FFF7B6FF02E0FFF7B3FF5B1E012801D182
:10657000002BF8D1002B00D1052000BD431E0021C7
:10658000144A0C2B0AD813780A2B00D311701178F7
:106590004B1C1370104A49005052704703460E3B83
:1065A0000C2B0BD853780A2B00D3517051784B1C0D
:1065B0005370094A490014325052704793780A2B9D
:1065C00000D3917091784B1C9370034A4900283294
:1065D000505270472A0100208A050020431E0021E6
:1065E000144A0C2B0AD8D3780A2B00D3D170D17857
:1065F0004B1CD370104A49005052704703460E3B63
:106600000C2B0BD813790A2B00D3117111794B1C69
:106610001371094A490014325052704753790A2BBA
:1066200000D3517151794B1C5371034A49002832F0
:10663000505270472A010020C6050020008870478C
:1066400070B504460D46FFF779FF3420FFF71EFFB3
:106650002046FFF721FF0428FAD129462046FFF7FC
:1066600053FF0446FFF748FF204670BDF0B50022F7
:106670000325012393400C681C409C422AD10C79CD
:10668000012C01D0022C12D1876854002E46A6405E
:10669000B74387604E79A640846826438660848825
:1066A0009C43848084888B7993401C438480066853
:1066B00053002C469C40A64306600E7907689E4016
:1066C0003E430660C668A643C660CC799C40C3685A
:1066D0001C43C460521C102ACBD3F0BD10B54B072D
:1066E000DB0E9A40C90889000818016A0F249C40F3
:1066F000A1430162016A1143016210BD0185704727
:106700008161704770B505460A4A5021284600F05D
:1067100033FB0446074A5921921C284600F02CFB03
:106720000419044A5121521C284600F025FB001987
:1067300070BD0000E0060020704700000E490F4ABF
:10674000087C50750E488A7C0285CA7C42858A8AFC
:106750008285CA8AC2850A8B0286498B418609498D
:106760000A78D20601D53C2202854978490701D52D
:106770000021018570470000C80D0020F20C0020A8
:10678000600C002028020020F7B584B0002400210E
:1067900001250123049E0598401E80B2019000202F
:1067A000059FBF1E03971AE04700F75BBE46871C94
:1067B00002977F00F75BBC46724501D3624503D95F
:1067C00072450AD8624508D374466546411C4900A3
:1067D000715AC31C5B00F35A04E0029880B2039F15
:1067E000B842E1DB019E761EB04216DB04980388B6
:1067F00003994900445A0599491E4900A34206D805
:10680000A24202D3405A07B0F0BD4088FBE79A424B
:1068100001D34088F7E7405AF5E7A54205D228465C
:106820002546044618460B4601468B4210D30846BF
:1068300068431E466643591A4A43B04202DB801B36
:10684000101801E0301A101A291BFBF716FB0AE09A
:10685000084668431E466643C91A4A43801B801A8D
:10686000291BFBF70AFB80B2CDE7F7B58CB01446C5
:1068700000200A9009900120089007900C9D0D9827
:10688000401E80B20B90002721E07800285A069025
:10689000B81C4000285A05900698844202DB0598EF
:1068A000844205DD069884420FDC059884420CDBA7
:1068B00006980A9005980890781C4000285A09907C
:1068C000F81C4000285A079005E0B81C87B20D98C4
:1068D000801EB842D9DC00BF0B98401EB84225DCB0
:1068E0000C9D288806900D98801E4000285A05901F
:1068F0000599069888420BDC0598844205DB0D98C3
:10690000401E4000285A06900DE0688806900AE074
:106910000698844202DB6888069004E00D98401EC9
:106920004000285A069006980FB0F0BD0A990898C2
:10693000884207D2089E0A9808900A96079E0998EE
:106940000790099609990798884227D308990998CA
:10695000484304900A9907984843039026460999AA
:106960000798401A02900298464303990498884277
:1069700006DB03990498401A01900198361805E047
:1069800004990398401A01900198361A0A9A0898B7
:10699000811A3046FBF771FA06461BE00899099800
:1069A000484304900A99079848430390264607995C
:1069B0000998401A02900298464303990498401A95
:1069C00001900198861B0A9A0898811A3046FBF7B5
:1069D00054FA0646B0B2A7E710B500241D48C08897
:1069E000002806D001280DD0022814D0032824D175
:1069F0001AE01848803002892A215238FFF735FF03
:106A0000C4B223E01348803002892A211248FFF7DC
:106A10002CFFC4B21AE00F48803002892A210F48A7
:106A2000FFF723FFC4B211E00A48803002892A210F
:106A30000B48FFF71AFFC4B208E00648803002890D
:106A40002A210548FFF711FFC4B200BF00BF20464E
:106A500010BD0000480D002008D500085CD50008D6
:106A6000B0D50008FEE7000010B518480078800691
:106A70002BD5082005F018FC002826D014484078B3
:106A8000400622D513480078030006F09DF805045F
:106A9000070A0D10120000F0A1F80AE000F06CF8EF
:106AA00007E000F01BF804E000F048F801E000F017
:106AB0008FF8094840780922C007D206C00C918A95
:106AC00001231B0399430143918210BD280200203A
:106AD000140200206A0100203002002070B5134823
:106AE0001449458C1248002446888888124A01239C
:106AF000B5420AD9401C80B28880032808D98C800E
:106B00005078984350700B7002E0002800D08C80C1
:106B100006482030407EC40701D1800704D5507854
:106B2000184350700320087070BD0000600C0020F6
:106B30007A0600206A010020300200200B48407EC7
:106B4000C10711D180070FD40949C888401C80B201
:106B5000C8800A2808D90020C88006484278520810
:106B6000520042700420087070470000800C002022
:106B70006A0100203002002070B511481149458C8F
:106B80000E88114A0123114CB5420BD8858C898897
:106B90008D4202D2C08C884204D350781843507082
:106BA0000220207006482030407EC10701D18007B6
:106BB00004D55078184350700320207070BD000039
:106BC000600C00207A060020300200206A010020BC
:106BD00001490120087070476A0100200748082217
:106BE0000178114301700648417849084900417015
:106BF0000249012008390870704700007201002026
:106C000034020020FFB585B015461F4604910020D0
:106C100003900290264C03AB012204A9059800F0D2
:106C2000DBF806467A0002AB2146059800F042F8F0
:106C3000304305D0FF2021460870012009B0F0BD87
:106C4000059869464000401C087120784871072269
:106C5000022101A8FEF72EFA641C2178814204D09B
:106C60001349FF2008700120E8E720462038C07F44
:106C70002870012614E0641C072201212046FEF73B
:106C800019FA641C6D1C2178814204D00849FF2048
:106C900008700120D2E720462038C07F2870761C7B
:106CA000BE42E8DB0249FF2008700020C6E7000072
:106CB00028070020FFB581B00C461546002018605B
:106CC00001272B4E3F03376000F048FB07E0306898
:106CD000411E316003D205F0D7FB05B0F0BD0121A4
:106CE000C903244800F04CF90028F0D109208002A3
:106CF0000090019801234100EAB2491C5B061D483F
:106D000000F07EF900F02AFB1A4F16E00120000384
:106D1000306006E03068411E316002D205F0B4FBFD
:106D2000DBE70421384600F02BF90028F2D0384682
:106D300000F060F92070641C6D1E002DE6D101206A
:106D40000003306000F00AFB06E03168481E306046
:106D500002D205F099FBC0E72021384600F010F977
:106D60000028F2D02021384600F0F0F80020B4E7E7
:106D7000740100200058004070B586B006461546E4
:106D8000059100200490029004AB012205A9304631
:106D900000F022F8044602AB022203A93046FFF7B6
:106DA00089FF204302D0012006B070BD7000401C56
:106DB00069460871087B48710722022101A8FEF785
:106DC00079F96946497B814201D00120ECE76846A8
:106DD000007B28700020E7E7FFB581B00C46154620
:106DE0001F460026012133480903016000F0B6FA6E
:106DF00009E030490868421E0A6004D23E6005F08E
:106E000043FB05B0F0BD0121C9032B4800F0B8F8E1
:106E10000028EED101204003009001980123410099
:106E2000EAB25B06244800F0EBF800F097FA1CE0A9
:106E300001212048090301600CE01E490868421E38
:106E40000A6007D23E6001211B4800F08DF805F072
:106E50001BFBD6E70221184800F092F80028ECD07E
:106E60002178154800F0C9F8641C6D1E681CDFD13C
:106E70000120104C0003206000F070FA0E4D0BE072
:106E80002068411E216007D23E600121284600F0A3
:106E90006BF805F0F9FAB4E72021284600F070F805
:106EA0000028EDD02021284600F050F83E60002058
:106EB000A7E700007401002000580040FFB581B032
:106EC00015461F4600200090144C01984000207089
:106ED00061702878A070E41C07220321E01EFEF7F1
:106EE000E9F8207001260BE0641C6D1C28782070E6
:106EF000072201212046FEF7DDF86070641C761C35
:106F0000BE42F1DB054C7A00521C6B46611C0198B5
:106F1000FFF762FFFF21217005B0F0BD7807002068
:106F20001CB504460020009060006B461871597132
:106F30009A710722032101A8FEF7BCF86B46D871AD
:106F40000322591D2046FFF747FF1CBDC161704752
:106F5000002904D0016801221143016070470168D3
:106F6000490849000160704701229203002903D0BB
:106F700041681143416070474168914341607047E7
:106F80000246002092690A40002A00D00120704782
:106F900010B502685208520002600268134B1A4092
:106FA0008C684B6824021443234303600F230A6850
:106FB0001B069A430261026801231A430260002201
:106FC0008260C2600B698A691A4382608268012309
:106FD000DB031A438260CA68036813430360426894
:106FE000034B1A4049691143416010BDFFE0CF00D7
:106FF000FF7FFF07406AC0B27047816270470000A0
:1070000070B5049D4468054E34408905890D12040D
:107010001143194329432143416070BD009800FC8E
:1070200070B50E4C0825A08AA843216803221202DD
:107030009143216021686A01114321601021884336
:10704000A082022005F0EAFDA08A2843A082022047
:1070500005F0E4FDA08AA843A08270BD00040048AA
:1070600070B50E4C0825A08AA8432168032212029D
:107070009143216021686A01114321601021084376
:10708000A082022005F0CAFDA08A2843A082022027
:1070900005F0C4FDA08AA843A08270BD000400488A
:1070A000F1B50024154E3068032109028843306091
:1070B0003068306000250827B08AB843B0820220CB
:1070C00005F0ACFDB08A3843B0826006040E308A09
:1070D000C00601D5641CE4B2022005F09FFD6D1CC2
:1070E000EDB2082DE8D30098002803D0FFF798FFF1
:1070F0002046F8BDFFF7B4FFFAE70000000400489F
:10710000F8B50546184E30680321090288433060FF
:107110003068FF21013108433060B08A0827B84346
:10712000B0820024E80904D0B08A10210843B0825C
:1071300003E0B08A10218843B0826806050E022061
:1071400005F06CFDB08A3843B082022005F066FD80
:10715000B08AB843B082022005F060FD641CE4B23E
:10716000082CDFD3F8BD00000004004870B50F4CB8
:10717000206803210902884320602068FF21013133
:1071800008432060A08A1025284308263043A082A7
:10719000022005F043FDA08AA843A082022005F04A
:1071A0003DFDA08AB043A08270BD000000040048ED
:1071B00070B5104C206803210902884320602068C4
:1071C000FF21013108432060A08A0825A84310262A
:1071D000B043A082022005F021FDA08A2843A082AE
:1071E000022005F01BFDA08A3043A082022005F09A
:1071F00015FD70BD0004004870B50024114D2868CD
:10720000032109028843286028682860A88A082684
:107210003043A882022005F001FD07E0641CE4B2BF
:10722000FA2C03D9FFF7C4FF012070BD288AC006DD
:10723000F4D4A88AB043A882022005F0EFFC002015
:1072400070BD00000004004801F046FC01F044FC61
:1072500001F042FC10B50121480401F07BFC012142
:10726000880401F077FC0121C80401F073FC0121BE
:10727000880501F06FFC0948FBF78CFC002009220F
:10728000D206D060411E1160054AD0601160054AE7
:10729000D0601160044AD060116010BD002401402C
:1072A0000004004800080048001400481CB5FFF71F
:1072B000D1FF0120C0030090012069460871002021
:1072C00088714871064C2046FFF7D0F90099204696
:1072D00089B2FFF715FA00F033F9FBF7F7FD1CBD93
:1072E000000400481CB5FFF7B5FF0120C003009063
:1072F000012069460871002088714871064C2046BB
:10730000FFF7B4F90099204689B2FFF7F9F900F0C8
:1073100017F9FBF7DBFD1CBD000400481CB501207C
:10732000C0030090012069460871002088714871EF
:10733000054C2046FFF79AF90099204689B2FFF7DD
:10734000DDF9FFF787FF1CBD000400480249014832
:1073500008607047CCCC0000003000400249014872
:1073600008607047AAAA0000003000400149486048
:1073700070470000003000400149886070470000FD
:1073800000300040014908607047000000300040B4
:1073900070B500F091F800F0ADF800F05BF800F087
:1073A00015F80020084C0022064B25460C3D4100F4
:1073B0005A52810062506A50401CC0B20328F6D372
:1073C00070BD0000D4000020A003002030B587B0BD
:1073D0000121480201F0DAFB1C4C2046FBF7DAFBE6
:1073E00001A8FBF734FC0021019168460172A01549
:1073F0000490800003900591069101A92046FBF7B7
:10740000FFFBFF21052231312046FBF79DFB0121C7
:107410002046FBF70BFC2046FBF7CCFB0121204666
:10742000FBF797FB0A4D20462946FBF7DAFB0028BD
:10743000F9D002212046FBF7A4FB01212046FBF7EF
:1074400094FB2046FBF7FEFB07B030BD0024014053
:107450000100000110B58CB00121084601F07AFB53
:10746000124C2046FEF770FB01A8FEF709FC1048FD
:10747000019010480290002103910320049005918F
:1074800080200690400007908000089020200990FE
:1074900000020A900B9101A92046FEF7D3FB0121BF
:1074A0002046FEF743FB0CB010BD00000800024070
:1074B00040240140D40000207CB50121480401F0A3
:1074C00049FB302000900325684605710024C471F3
:1074D00009206946C006FFF7C9F8012000906846F8
:1074E0000571C47169460248FFF7C0F87CBD000011
:1074F000000400483EB50121080401F047FB7D204F
:10750000C00001900C480B490068FAF7B6FC6946C8
:107510000880002008814880084C204604F0ECFFD9
:107520002021204604F0DBFF0121204604F0B5FFB6
:107530003EBD0000A0860100C000002000400140C8
:1075400070B58AB00121880501F012FB0024069471
:107550000494059407940894099418480390184DCE
:1075600001212846FFF7F4FC03A92846FFF710FD88
:107570002815019002256846057244728472114EE6
:1075800001A93046FFF772F8A8020190684605721B
:107590004472847201A93046FFF768F801220A217B
:1075A0003046FFF79BF801220B213046FFF796F893
:1075B000082000F0B1FD0AB070BD00002B1D900046
:1075C00000580040000400480748C18F07488180E8
:1075D0000A21C180012202810021018041800449E9
:1075E0008181C18182727047C80400200C0D002087
:1075F000B80B000010B5164802F098F815498842FB
:1076000002D101F01BFF10BDFEF7BCFD124C01E0E2
:1076100005F036F9A078A1680843E1680843F7D17E
:1076200020690028F4D120780028F1D16078002862
:10763000EED160690028EBD1A0690028E8D1E069AB
:107640000028E5D1FEF724FE05F07EFA10BD00000B
:10765000FC3F0000381100000401002010B5144860
:10766000144A018E1180418E518013499180018B03
:10767000D180818E9181C08E508100211046803052
:10768000C170017100200D4C41000B198918CB818C
:10769000401C80B21028F7D30020094B41005C5AEF
:1076A0008918CC85401C80B22A28F7D310BD000071
:1076B000C8040020480D00208813000016030000B5
:1076C0009E0C0020104801690422914301610F487B
:1076D0000F490068012240180E4900280AD00E4BBD
